:020000040800F2
:1000000000000220C93600083D1500083F15000811
:1000100041150008431500084515000800000000C0
:10002000000000000000000000000000471500086C
:1000300049150008000000004B1500084D15000888
:100040001937000819370008193700081937000850
:100050001937000819370008193700081937000840
:100060001937000819370008193700081937000830
:100070001937000819370008193700081937000820
:100080001937000819370008193700080000000068
:100090000000000000000000000000001937000808
:1000A00019370008193700081937000819370008F0
:1000B000193700081937000891150008193700088A
:1000C00019370008193700081937000819370008D0
:1000D00019370008A11500081937000800000000B2
:1000E0001937000819370008193700080000000008
:1000F00000000000000000000000000019370008A8
:1001000000000000193700081937000819370008E7
:1001100000000000000000000000000000000000DF
:10012000193700081937000819370008193700086F
:100130001937000800000000000000000000000067
:100140000000000000000000000000001937000857
:10015000193700081937000819370008193700083F
:1001600019370008193700080000000000000000DF
:10017000000000000000000000000000000000007F
:100180000000000019370008000000000000000017
:080190001937000819370008B7
:1001C00081F0004102E000BF83F0004330B54FEA08
:1001D00041044FEA430594EA050F08BF90EA020F75
:1001E0001FBF54EA000C55EA020C7FEA645C7FEA08
:1001F000655C00F0E2804FEA5454D4EB5555B8BF2B
:100200006D420CDD2C4480EA020281EA030382EA9B
:10021000000083EA010180EA020281EA0303362D2D
:1002200088BF30BD11F0004F4FEA01314FF4801C00
:100230004CEA113102D0404261EB410113F0004F12
:100240004FEA03334CEA133302D0524263EB4303C9
:1002500094EA050F00F0A780A4F10104D5F1200E67
:100260000DDB02FA0EFC22FA05F2801841F10001C2
:1002700003FA0EF2801843FA05F359410EE0A5F196
:1002800020050EF1200E012A03FA0EFC28BF4CF0C7
:10029000020C43FA05F3C01851EBE37101F000457D
:1002A00007D54FF0000EDCF1000C7EEB00006EEB8A
:1002B0000101B1F5801F1BD3B1F5001F0CD3490814
:1002C0005FEA30004FEA3C0C04F101044FEA44526B
:1002D00012F5800F80F09A80BCF1004F08BF5FEAF2
:1002E000500C50F1000041EB045141EA050130BDD2
:1002F0005FEA4C0C404141EB0101013C28BFB1F5E4
:10030000801FE9D291F0000F04BF01460020B1FA2E
:1003100081F308BF2033A3F10B03B3F120020CDA01
:100320000C3208DD02F1140CC2F10C0201FA0CF0DF
:1003300021FA02F10CE002F11402D8BFC2F1200C44
:1003400001FA02F120FA0CFCDCBF41EA0C019040FA
:10035000E41AA2BF01EB0451294330BD6FEA040443
:100360001F3C1CDA0C340EDC04F11404C4F120022E
:1003700020FA04F001FA02F340EA030021FA04F340
:1003800045EA030130BDC4F10C04C4F1200220FA97
:1003900002F001FA04F340EA0300294630BD21FAD5
:1003A00004F0294630BD94F0000F83F4801306BF9B
:1003B00081F480110134013D4EE77FEA645C18BF8F
:1003C0007FEA655C29D094EA050F08BF90EA020F26
:1003D00005D054EA000C04BF1946104630BD91EA1E
:1003E000030F1EBF0021002030BD5FEA545C05D121
:1003F0004000494128BF41F0004130BD14F5800460
:100400003CBF01F5801130BD01F0004545F0FE41D3
:1004100041F470014FF0000030BD7FEA645C1ABF08
:10042000194610467FEA655C1CBF0B46024650EA3F
:10043000013406BF52EA033591EA030F41F400216B
:1004400030BD00BF90F0000F04BF0021704730B5F1
:100450004FF4806404F132044FF000054FF00001C6
:1004600050E700BF90F0000F04BF0021704730B587
:100470004FF4806404F1320410F0004548BF40425C
:100480004FF000013EE700BF42004FEAE2014FEAB1
:1004900031014FEA02701FBF12F07F4393F07F4F8C
:1004A00081F06051704732F07F4208BF704793F08F
:1004B0007F4F04BF41F40021704730B54FF46074A2
:1004C00001F0004521F000411CE700BF50EA0102A5
:1004D00008BF704730B54FF000050AE050EA01024E
:1004E00008BF704730B511F0004502D5404261EBBE
:1004F00041014FF4806404F132045FEA915C3FF4FF
:10050000D8AE4FF003025FEADC0C18BF03325FEA9B
:10051000DC0C18BF033202EBDC02C2F1200300FA4C
:1005200003FC20FA02F001FA03FE40EA0E0021FA71
:1005300002F11444BDE600BF70B54FF0FF0C4CF45F
:10054000E06C1CEA11541DBF1CEA135594EA0C0F11
:1005500095EA0C0F00F0DEF82C4481EA030621EA4C
:100560004C5123EA4C5350EA013518BF52EA033587
:1005700041F4801143F4801338D0A0FB02CE4FF039
:100580000005E1FB02E506F00042E0FB03E54FF069
:100590000006E1FB03569CF0000F18BF4EF0010E61
:1005A000A4F1FF04B6F5007F64F5407404D25FEA5D
:1005B0004E0E6D4146EB060642EAC62141EA555110
:1005C0004FEAC52040EA5E504FEACE2EB4F1FD0C52
:1005D00088BFBCF5E06F1ED8BEF1004F08BF5FEAD0
:1005E000500E50F1000041EB045170BD06F0004682
:1005F00046EA010140EA020081EA0301B4EB5C042F
:10060000C2BFD4EB0C0541EA045170BD41F4801126
:100610004FF0000E013C00F3AB8014F1360FDEBF4B
:10062000002001F0004170BDC4F10004203C35DA27
:100630000C341BDC04F11404C4F1200500FA05F3AA
:1006400020FA04F001FA05F240EA020001F000424B
:1006500021F0004110EBD37021FA04F642EB0601C1
:100660005EEA430E08BF20EAD37070BDC4F10C04EB
:10067000C4F1200500FA04F320FA05F001FA04F2AF
:1006800040EA020001F0004110EBD37041F100019B
:100690005EEA430E08BF20EAD37070BDC4F12005A6
:1006A00000FA05F24EEA020E20FA04F301FA05F20E
:1006B00043EA020321FA04F001F0004121FA04F2B6
:1006C00020EA020000EBD3705EEA430E08BF20EA86
:1006D000D37070BD94F0000F0FD101F000464000C0
:1006E00041EB010111F4801F08BF013CF7D041EA42
:1006F000060195F0000F18BF704703F00046520046
:1007000043EB030313F4801F08BF013DF7D043EA16
:100710000603704794EA0C0F0CEA135518BF95EACC
:100720000C0F0CD050EA410618BF52EA4306D1D153
:1007300081EA030101F000414FF0000070BD50EA72
:10074000410606BF1046194652EA430619D094EAFC
:100750000C0F02D150EA013613D195EA0C0F05D1E6
:1007600052EA03361CBF104619460AD181EA03013A
:1007700001F0004141F0FE4141F470014FF00000F2
:1007800070BD41F0FE4141F4780170BD70B54FF08D
:10079000FF0C4CF4E06C1CEA11541DBF1CEA13550D
:1007A00094EA0C0F95EA0C0F00F0A7F8A4EB0504EF
:1007B00081EA030E52EA03354FEA013100F08880E6
:1007C0004FEA03334FF0805545EA131343EA1263AF
:1007D0004FEA022245EA111545EA10654FEA002664
:1007E0000EF000419D4208BF964244F1FD0404F51D
:1007F000407402D25B084FEA3202B61A65EB030579
:100800005B084FEA32024FF480104FF4002CB6EB35
:10081000020E75EB030E22BFB61A754640EA0C00B5
:100820005B084FEA3202B6EB020E75EB030E22BFF5
:10083000B61A754640EA5C005B084FEA3202B6EB36
:10084000020E75EB030E22BFB61A754640EA9C00F5
:100850005B084FEA3202B6EB020E75EB030E22BFC5
:10086000B61A754640EADC0055EA060E18D04FEA83
:10087000051545EA16754FEA06164FEAC30343EA23
:1008800052734FEAC2025FEA1C1CC0D111F4801FF0
:100890000BD141EA00014FF000004FF0004CB6E7E9
:1008A00011F4801F04BF01430020B4F1FD0C88BF88
:1008B000BCF5E06F3FF6AFAEB5EB030C04BFB6EB93
:1008C000020C5FEA500C50F1000041EB045170BD86
:1008D0000EF0004E4EEA113114EB5C04C2BFD4EBB3
:1008E0000C0541EA045170BD41F480114FF0000E37
:1008F000013C90E645EA060E8DE60CEA135594EAB3
:100900000C0F08BF95EA0C0F3FF43BAF94EA0C0FB5
:100910000AD150EA01347FF434AF95EA0C0F7FF42A
:1009200025AF104619462CE795EA0C0F06D152EA7E
:1009300003353FF4FDAE1046194622E750EA410662
:1009400018BF52EA43067FF4C5AE50EA41047FF473
:100950000DAF52EA43057FF4EBAE12E753B94AB943
:10096000002908BF00281CBF4FF0FF314FF0FF30B7
:1009700000F00CB8ADF1080C6DE904CE02F0CEFE2B
:10098000DDF804E0DDE9022304B07047704700BFE2
:1009900001F0FF01102A2BDB10F0070F08D010F830
:1009A000013B013A8B422DD010F0070F42B3F6D134
:1009B000F0B441EA012141EA014122F007047FF04D
:1009C00000070023F0E80256083C85EA010586EAA4
:1009D000010685FA47F5A3FA87F586FA47F6A5FAE0
:1009E00087F68EB9EED1F0BC01F0FF0102F00702EC
:1009F00032B110F8013B013A83EA010313B1F8D197
:100A00000020704701387047002D06BF3546033877
:100A1000073815F0010F07D1013015F4807F02BFB0
:100A2000013015F4C03F0130F0BC0138704700BF01
:100A300000000000000000000000000000000000B6
:100A400090F800F06DE9024520F007016FF0000C0E
:100A500010F0070491F820F040F049804FF00004B6
:100A60006FF00700D1E9002391F840F000F1080091
:100A700082FA4CF2A4FA8CF283FA4CF3A2FA8CF3C9
:100A80004BBBD1E9022382FA4CF200F10800A4FA30
:100A90008CF283FA4CF3A2FA8CF3E3B9D1E9042384
:100AA00082FA4CF200F10800A4FA8CF283FA4CF3BB
:100AB000A2FA8CF37BB9D1E9062301F1200182FA75
:100AC0004CF200F10800A4FA8CF283FA4CF3A2FA7B
:100AD0008CF3002BC6D0002A04BF04301A4612BA89
:100AE000B2FA82F2FDE8024500EBD2007047D1E98C
:100AF000002304F00305C4F100004FEAC50514F01B
:100B0000040F91F840F00CFA05F562EA05021CBFEB
:100B100063EA050362464FF00004A9E7844641EA10
:100B2000000313F003036DD1403A41D351F8043B65
:100B300040F8043B51F8043B40F8043B51F8043BB7
:100B400040F8043B51F8043B40F8043B51F8043BA7
:100B500040F8043B51F8043B40F8043B51F8043B97
:100B600040F8043B51F8043B40F8043B51F8043B87
:100B700040F8043B51F8043B40F8043B51F8043B77
:100B800040F8043B51F8043B40F8043B51F8043B67
:100B900040F8043B51F8043B40F8043B51F8043B57
:100BA00040F8043B51F8043B40F8043B403ABDD2C6
:100BB000303211D351F8043B40F8043B51F8043B68
:100BC00040F8043B51F8043B40F8043B51F8043B27
:100BD00040F8043B103AEDD20C3205D351F8043BF7
:100BE00040F8043B043AF9D2043208D0D2071CBFC3
:100BF00011F8013B00F8013B01D30B8803806046EC
:100C0000704700BF082A13D38B078DD010F0030361
:100C10008AD0C3F10403D21ADB071CBF11F8013BD1
:100C200000F8013B80D331F8023B20F8023B7BE720
:100C3000043AD9D3013A11F8013B00F8013BF9D24B
:100C40000B7803704B7843708B78837060467047E5
:100C50004FF0FF3C06E000BF4FF0010C02E000BF88
:100C60004FF0010C4DF804CD4FEA410C7FEA6C5C6B
:100C70004FEA430C18BF7FEA6C5C1BD001B050EA0E
:100C8000410C0CBF52EA430C91EA030F02BF90EAF9
:100C9000020F0020704710F1000F91EA030F58BFB8
:100CA000994208BF90422CBFD8176FEAE37040F01A
:100CB000010070474FEA410C7FEA6C5C02D150EAB8
:100CC000013C07D14FEA430C7FEA6C5CD6D152EA73
:100CD000033CD3D05DF8040B704700BF8446104638
:100CE00062468C461946634600E000BF01B5FFF737
:100CF000B7FF002848BF10F1000F01BD4DF808ED07
:100D0000FFF7F4FF0CBF012000205DF808FB00BFD7
:100D10004DF808EDFFF7EAFF34BF012000205DF831
:100D200008FB00BF4DF808EDFFF7E0FF94BF01207E
:100D300000205DF808FB00BF4DF808EDFFF7CEFF7F
:100D400094BF012000205DF808FB00BF4DF808EDBE
:100D5000FFF7C4FF34BF012000205DF808FB00BF8F
:100D60004FEA410C7FEA6C5C02D150EA013C0AD1A7
:100D70004FEA430C7FEA6C5C02D152EA033C02D199
:100D80004FF0000070474FF0010070474FEA4102FA
:100D900012F5001215D211D56FF47873B3EB6252CD
:100DA00012D94FEAC12343F0004343EA505311F0F4
:100DB000004F23FA02F018BF404270474FF0000086
:100DC000704750EA013005D111F0004008BF6FF0C4
:100DD000004070474FF00000704700BF0348044BCD
:100DE000834202D0034B03B118477047C40600206A
:100DF000C4060020000000000548064B1B1AD90F4E
:100E000001EBA301491002D0034B03B1184770470F
:100E1000C4060020C40600200000000010B5064CE7
:100E2000237843B9FFF7DAFF044B13B10448AFF35B
:100E300000800123237010BDC406002000000000C4
:100E4000F89D000808B5054B1BB105490548AFF3EF
:100E50000080BDE80840FFF7CFBF00BF00000000E2
:100E6000C8060020F89D0008F0B58BB0002405945A
:100E7000069407940894099401942C4B1A6B42F041
:100E800004021A631A6B02F004020192019A02949E
:100E90001A6B42F080021A631A6B02F0800202920F
:100EA000029A03941A6B42F001021A631A6B02F061
:100EB00001020392039A04941A6B42F002021A632D
:100EC0001B6B03F002030493049B194E01220721BC
:100ED000304600F0B0FF22464FF47071304600F00B
:100EE000AAFF144D2246A021284600F0A4FF40F29C
:100EF000C7330593012706970794089405A9304640
:100F000000F0AAFE4FF2104305930694079405A93A
:100F1000284600F0A1FEA0230593069707940894A5
:100F200005A9284600F098FE0BB0F0BD003802403D
:100F3000000002400004024010B50F4B1B880F4A0E
:100F40001268D363463B13640D4C01224FF4807149
:100F5000204600F070FF00224FF40071204600F0A0
:100F60006AFF00224021204600F065FF0122802117
:100F7000204600F060FF10BD000000203407002074
:100F80000000024010B50C4C01224FF48071204645
:100F900000F051FF01224FF40071204600F04BFF9A
:100FA00001224021204600F046FF012280212046F8
:100FB00000F041FF10BD00BF0000024010B50F4B14
:100FC0001A680F4B1B88323B13640E4C01224FF4FE
:100FD0008071204600F02FFF00224FF40071204660
:100FE00000F029FF01224021204600F024FF0022CA
:100FF0008021204600F01FFF10BD00BF34070020F5
:10100000000000200000024010B5104B1B88104A61
:101010001268A3F1640111642833D3630D4C0022DC
:101020004FF48071204600F006FF01224FF400715A
:10103000204600F000FF00224021204600F0FBFE89
:1010400001228021204600F0F6FE10BD00000020A5
:10105000340700200000024010B583E00022227017
:1010600008230A22A449A54802F087F8FFF78AFF5F
:1010700010BD4FF48051A24800F0D6FE012840F088
:1010800084804FF400519E4800F0CEFE00287CD1B1
:101090004FF4804100F1804000F5013000F0C4FEC3
:1010A000012872D14FF40041954800F0BDFE01289F
:1010B0006BD1FFF741FF50E04FF48051904800F0B2
:1010C000B3FE002868D14FF4005100F1804000F5D4
:1010D000013000F0A9FE01285ED14FF4804188481C
:1010E00000F0A2FE012857D14FF40041844800F0DF
:1010F0009BFE012850D1FFF761FF2EE04FF4005115
:101100007F4800F091FE012856D14FF480417C4881
:1011100000F08AFE01284FD14FF40041784800F0DA
:1011200083FE012848D1FFF749FF16E04FF48061A4
:10113000734800F079FE01286AD04FF4806170484E
:1011400000F072FE012800F087804FF480616C4847
:1011500000F06AFE012800F0A2806A4B1B78012B88
:1011600000F0C080684C0A2301222146634802F047
:1011700070F82378332B3FF471AF4FF480616048EF
:1011800000F052FE01283FF474AF4FF480615C48D8
:1011900000F04AFE01288FD04FF48061584800F0DB
:1011A00043FE48B94FF4805100F1804000F5013012
:1011B00000F03AFE0128A1D04FF48061504800F0C1
:1011C00033FE0028B2D14FF4805100F1804000F589
:1011D000013000F029FE0028A8D14FF4005100F1A1
:1011E000804000F5013000F01FFE01289ED14FF431
:1011F0008041434800F018FE012897D14FF4004188
:101200003F4800F011FE012890D1FFF7D7FEA4E778
:101210004FF480513A4800F007FE01288DD14FF479
:101220000051374800F000FE012886D14FF480417C
:10123000334800F0F9FD00287FF47FAF4FF4004100
:1012400000F1804000F5013000F0EEFD01287FF450
:1012500074AFFFF7D9FE80E74FF48051284800F0C3
:10126000E3FD01287FF471AF4FF40051244800F0F2
:10127000DBFD01287FF469AF4FF48041204800F086
:10128000D3FD01287FF461AF4FF400411C4800F00A
:10129000CBFD00287FF459AFFFF7B6FE5DE74FF4B2
:1012A0008051174800F0C0FD01287FF456AF4FF47D
:1012B0000051134800F0B8FD01287FF44EAF4FF401
:1012C00080410F4800F0B0FD01287FF446AF4FF495
:1012D00000410B4800F0A8FD01287FF43EAFFFF766
:1012E00093FE3AE708230D220849044801F045FF20
:1012F000044B00221A7035E7109E0008C00700203A
:1013000000040240E0060020E20600201C9E0008C7
:1013100072B6FEE700B595B03022002108A802F0B1
:10132000B5FC00230393049305930693079301935D
:101330001E4A116C41F080511164126C02F080520F
:101340000192019A02931A4A116841F440411160D6
:10135000126802F440420292029A0222089201218B
:101360000B9110210C910E920F930823109364237C
:10137000119312920423139308A800F06BFD88B90F
:101380000F23039302230493002305934FF4805209
:1013900006920793032103A800F0ACFF20B915B013
:1013A0005DF804FBFFF7B4FFFFF7B2FF003802401F
:1013B000007000400000000000B585B000F04AFB5E
:1013C000FFF7A8FFFFF750FD00F04CF900F068FAB6
:1013D00000F080FA00F002FA3F4EFA2333803F4DCE
:1013E0000821284601F0BAFC0C21284601F0B6FC81
:1013F0003B4C142309223B49204601F0BEFE142336
:101400000D223949204601F0B8FE14230D22374938
:10141000204601F0B2FE002301930293ADF80C3098
:101420003088FFF71FF802460B4627A1D1E90001DB
:10143000FFF7ACF926A3D3E90023FFF7A7F902468B
:101440000B462B4901A802F0B9FB14230A2201A97B
:10145000204601F092FE33882A68D3631E3B136452
:1014600006E0244B1B78312B0FD0234B1B789BB904
:10147000204B1B78312BF4D0002301221D49184842
:1014800001F0E7FE0028F3D0EBE71B4B01221A70B6
:10149000184B00221A70E8E714231322174910484A
:1014A00001F06BFE134B1B78312B07D00023012278
:1014B00013490B4801F0CDFE0028F3D00E4B00225B
:1014C0001A70FFF7C9FDD3E70000000080842E41A9
:1014D000000000000088C340000000203407002006
:1014E000C00700202C9E0008389E0008489E000877
:1014F000589E0008E2060020E3060020609E0008D7
:10150000E106002082B0002100910B4B5A6C42F49E
:1015100080425A645A6C02F480420092009A01910F
:101520001A6C42F080521A641B6C03F080530193D2
:10153000019B02B0704700BF00380240FEE7FEE7A3
:10154000FEE7FEE7FEE770477047704710B500F012
:101550009BFA0C4A138801339BB21380632B00D88B
:1015600010BD134600221A80074B01221A70074C47
:101570000221204600F065FC0421204600F061FCB9
:10158000EEE700BFE4060020E00600200000024075
:1015900008B5024801F084F808BD00BFEC06002041
:1015A00008B5024801F052FF08BD00BFC007002087
:1015B0000120704708B502F00FFC162303604FF0BE
:1015C000FF3008BD08B54FF0FF31FFF7F3FFFEE72E
:1015D00070B50C461646002506E0AFF300802146A4
:1015E00001F8010B01350C46B542F6DB304670BD03
:1015F00070B50C461646002504E014F8010BAFF355
:1016000000800135B542F8DB304670BD08B50346B1
:101610000B4A126842B10A4A106803446A46934270
:1016200006D8074A136008BD054A06491160F2E76B
:1016300002F0D2FB0C2303604FF0FF30F3E700BF52
:10164000E8060020200B00204FF0FF3070474FF4D9
:1016500000534B6000207047012070470020704706
:101660007047000000B587B00023049305930093F2
:101670000193029303931748174A0260472242607E
:1016800083604FF6FF72C26003618023836101F0C3
:101690006BF9A8B900230493059304A90D4801F040
:1016A000D5FB80B90022009201230193029203929C
:1016B0006946084801F056FA40B907B05DF804FBE6
:1016C000FFF726FEE6E7FFF723FEEBE7FFF720FE36
:1016D000F3E700BFEC060020000800400268094B59
:1016E0009A4200D0704782B000230193064B1A6CD7
:1016F00042F002021A641B6C03F002030193019B87
:1017000002B07047000400400038024010B588B0B5
:101710000023039304930593069307930268174BE2
:101720009A4201D008B010BD0024019403F50C3397
:101730001A6C42F004021A641A6C02F0040201925C
:10174000019A02941A6B42F002021A631B6B03F0B7
:1017500002030293029B4023039302230493079303
:1017600003A9074800F078FA224621461E2000F01F
:10177000E3F91E2000F0F0F9D4E700BF00080040B4
:101780000004024000B587B0002301930293039345
:101790000493059302680E4B9A4202D007B05DF89D
:1017A00004FB002300930B4B1A6B42F002021A63F6
:1017B0001B6B03F002030093009B0323019302239E
:1017C0000293059301A9044800F046FAE6E700BF3A
:1017D00000040040003802400004024000B58FB011
:1017E00000230A930B930C930D9308930993019391
:1017F0000293039304930593069307932648274A7D
:10180000026063224260836040F2F312C2600361AF
:101810008023836101F050F858BB4FF480530A9342
:101820000AA91D4801F00CFA30BB1B4801F070F802
:1018300028BB00230893099308A9174801F006FB69
:1018400000BB6023019300230293039305930822B6
:1018500001A9114801F0E2F8B8B90C2201A90E481B
:1018600001F0DCF8A0B90C48FFF78CFF0FB05DF871
:1018700004FBFFF74DFDD0E7FFF74AFDD5E7FFF783
:1018800047FDD6E7FFF744FDDBE7FFF741FDE4E75F
:10189000FFF73EFDE7E700BF3407002000040040EB
:1018A00008B50A480A4B03604FF4165343600023FF
:1018B0008360C36003610C2242618361C36101F0F4
:1018C0002DFC00B908BDFFF723FDFBE7C007002092
:1018D0000010014008B50A480A4B03604FF4165344
:1018E000436000238360C36003610C224261836113
:1018F000C36101F013FC00B908BDFFF709FDFBE768
:101900007C07002000140140F0B58BB00023059344
:1019100006930793089309930368364A934204D0C9
:10192000354A934241D00BB0F0BD00240094334BB4
:101930005A6C42F010025A645A6C02F01002009283
:10194000009A01941A6B42F001021A631A6B02F0BA
:1019500001020192019A02941A6B42F002021A6388
:101960001B6B03F002030293029B4FF400430593A9
:1019700002270697032608960725099505A92048FA
:1019800000F06AF9082305930697079408960995CD
:1019900005A91C4800F060F922462146252000F0E8
:1019A000CBF8252000F0D8F8BDE700210391134BB8
:1019B0005A6C42F020025A645A6C02F020020392E0
:1019C000039A04911A6B42F001021A631B6B03F035
:1019D00001030493049B4FF4C05305930223069321
:1019E000032308930823099305A9054800F034F957
:1019F00099E700BF00100140001401400038024088
:101A0000000002400004024010B504460E4B1A7854
:101A10004FF47A73B3FBF2F30C4A1068B0FBF3F0A7
:101A200000F0A8F868B90F2C01D901200AE00022C3
:101A300021464FF0FF3000F07FF8054B1C6000207E
:101A400000E0012010BD00BF0800002004000020BD
:101A50000C00002008B50B4B1A6842F400721A60A3
:101A60001A6842F480621A601A6842F480721A603E
:101A7000032000F04FF80F20FFF7C6FFFFF742FDED
:101A8000002008BD003C0240034A1168034B1B784C
:101A90000B441360704700BF0408002008000020BA
:101AA000014B1868704700BF04080020002808DBBD
:101AB0000901C9B200F1604000F5614080F80013EF
:101AC000704700F00F000901C9B2014B195470476B
:101AD00014ED00E000B500F00700C0F1070CBCF108
:101AE000040F28BF4FF0040C031D062B0FD9C31E93
:101AF0004FF0FF3E0EFA0CF021EA000199400EFA79
:101B000003FE22EA0E0241EA02005DF804FB002314
:101B1000EEE70000074AD36823F4E0631B041B0CC4
:101B2000000200F4E060034343F0BF6343F400337A
:101B3000D360704700ED00E010B50446054BD8684F
:101B4000C0F30220FFF7C6FF01462046FFF7AEFFB5
:101B500010BD00BF00ED00E0002807DB00F01F0211
:101B6000400901239340024A42F82030704700BFE9
:101B700000E100E00138B0F1807F0BD24FF0E023AC
:101B80005861054AF02182F823100020986107224D
:101B90001A6170470120704700ED00E070B50446FF
:101BA000866DFFF77DFF94F83530DBB2022B06D04F
:101BB00080236365002384F83430012070BD05461E
:101BC0002268136823F0160313602268536923F018
:101BD00080035361236CE3B12268136823F0080388
:101BE00013602268136823F00103136023681B68E5
:101BF00013F0010F11D0FFF753FF431B052BF5D94D
:101C000020236365032084F83500002384F83430F2
:101C1000D4E7A36C002BDFD1E3E7E26D3F239340D1
:101C2000B360012384F83530002084F83400C5E720
:101C300090F83530DBB2022B03D0802343650120BE
:101C40007047052380F835300268136823F00103DC
:101C5000136000207047000000230F2B00F2DA8091
:101C600030B583B068E085684FEA430E032404FA78
:101C70000EF425EA0405CC6804FA0EF42C438460C3
:101C8000446824EA02044A68C2F300129A402243DC
:101C900042605FE0DC08083450F8242003F00705B8
:101CA000AD004FF00F0E0EFA05FE22EA0E0E0A6985
:101CB000AA4042EA0E0240F824205FE0042200E03D
:101CC000002202FA0EF22A430234534D45F8242032
:101CD000524A14686FEA0C0224EA0C05D1F804E0B9
:101CE0001EF4803F01D04CEA04054C4C256064682A
:101CF00002EA0405D1F804E01EF4003F01D04CEAEA
:101D00000405464C6560A46802EA0405D1F804E0C5
:101D10001EF4801F01D04CEA0405404CA560E46825
:101D200022404D6815F4001F01D04CEA04023B4CE0
:101D3000E26001330F2B6BD801229A400C6804EA51
:101D4000020C32EA0404F4D14C6804F00304013CB0
:101D5000012C88D94A6802F00302032A09D0C4681A
:101D60005D000322AA4024EA02048A68AA402243B2
:101D7000C2604A6802F00302022A8BD004684FEA6C
:101D8000430E032202FA0EF224EA02044A6802F029
:101D9000030202FA0EF2224302604A6812F4403F44
:101DA000C7D0002201921E4A546C44F4804454640B
:101DB000526C02F480420192019A9C08A51C164ABA
:101DC00052F8255003F0030E4FEA8E0E0F2202FA4E
:101DD0000EF225EA0205134A90423FF471AF02F574
:101DE000806290420ED002F5806290420CD002F5E3
:101DF000806290420AD002F5806290423FF45EAF6A
:101E000007225EE701225CE702225AE7032258E735
:101E100003B030BD704700BF00380140003C0140B6
:101E200000380240000002400369194201D001203D
:101E30007047002070470AB18161704709048161D1
:101E40007047436901EA030221EA030141EA0241C2
:101E500081617047002800F0E08170B582B00446CF
:101E6000036813F0010F3BD09F4B9B6803F00C03FA
:101E7000042B2CD09C4B9B6803F00C03082B21D027
:101E80006368B3F5803F4FD0B3F5A02F52D0964B87
:101E90001A6822F480321A601A6822F480221A60CA
:101EA0006368002B50D0FFF7FBFD05468E4B1B6887
:101EB00013F4003F14D1FFF7F3FD401B6428F5D95C
:101EC0000320B1E1884B5B6813F4800FD8D0864BB8
:101ED0001B6813F4003F03D06368002B00F09F8160
:101EE000236813F0020F54D07F4B9B6813F00C0F44
:101EF0003ED07D4B9B6803F00C03082B33D0E36886
:101F0000002B68D0794B01221A60FFF7C9FD054606
:101F1000754B1B6813F0020F54D1FFF7C1FD401B36
:101F20000228F5D903207FE16F4A136843F4803318
:101F30001360B5E76C4B1A6842F480221A601A6885
:101F400042F480321A60ABE7FFF7AAFD0546664B04
:101F50001B6813F4003FC3D0FFF7A2FD401B6428A9
:101F6000F5D9032060E1604B5B6813F4800FC6D1A4
:101F70005D4B1B6813F0020F03D0E368012B40F0A8
:101F80005081594A136823F0F803216943EAC103D9
:101F90001360236813F0080F42D063696BB3534B8F
:101FA0000122C3F8802EFFF77BFD05464E4B5B6F89
:101FB00013F0020F34D1FFF773FD401B0228F5D94F
:101FC000032031E1484A136823F0F803216943EA0A
:101FD000C1031360DDE7454B00221A60FFF760FD87
:101FE0000546414B1B6813F0020FD2D0FFF758FD96
:101FF000401B0228F5D9032016E13C4B0022C3F810
:10200000802EFFF74DFD0546374B5B6F13F0020F37
:1020100006D0FFF745FD401B0228F5D9032003E158
:10202000236813F0040F77D02F4B1B6C13F0805FE5
:1020300033D1002301932C4B1A6C42F080521A6466
:102040001B6C03F080530193019B0125284B1B68F7
:1020500013F4807F23D0A368012B34D0052B38D014
:10206000214B1A6F22F001021A671A6F22F0040244
:102070001A67A368002B3DD0FFF712FD06461A4BE6
:102080001B6F13F0020F46D1FFF70AFD801B41F2D0
:1020900088339842F3D90320C6E00025D6E7144AD6
:1020A000136843F480731360FFF7FAFC0646104B85
:1020B0001B6813F4807FCED1FFF7F2FC801B02284F
:1020C000F5D90320B0E0084A136F43F0010313670A
:1020D000CFE7054B1A6F42F004021A671A6F42F0FD
:1020E00001021A67C5E700BF0038024000004742FE
:1020F00000700040FFF7D4FC0646524B1B6F13F0F4
:10210000020F08D0FFF7CCFC801B41F288339842C5
:10211000F3D9032088E0EDB9A369002B00F0838098
:10212000484A926802F00C02082A51D0022B17D0BC
:10213000454B00221A66FFF7B3FC0446414B1B686F
:1021400013F0007F42D0FFF7ABFC001B0228F5D94B
:10215000032069E03B4A136C23F080531364DBE7F0
:10216000394B00221A66FFF79BFC0546354B1B686E
:1021700013F0007F06D0FFF793FC401B0228F5D92F
:10218000032051E0E369226A1343626A43EA82133F
:10219000A26A5208013A43EA0243E26A43EA02634E
:1021A000284A5360284B01221A66FFF779FC04463F
:1021B000244B1B6813F0007F06D1FFF771FC001B56
:1021C0000228F5D903202FE000202DE000202BE08D
:1021D000012B2BD01B4B5B6803F48001E269914219
:1021E00026D103F03F02216A8A4223D1616A47F671
:1021F000C0721A40B2EB811F1ED103F44031A26AB3
:102200005208013AB1EB024F18D103F07063E26A51
:10221000B3EB026F14D1002006E0012070470120CB
:1022200002E0012000E0002002B070BD0120FBE7C9
:102230000120F9E70120F7E70120F5E70120F3E7A6
:102240000120F1E7003802400000474208B5264B64
:102250009B6803F00C03042B41D0082B41D1224B87
:102260005A6802F03F025B6813F4800F12D01E4BD5
:102270005968C1F388111D480023A1FB0001FEF736
:102280006DFB194B5B68C3F3014301335B00B0FB8B
:10229000F3F027E0144B5868C0F388104FEA401C55
:1022A000BCEB000C6EEB0E0E4FEA8E1343EA9C6300
:1022B0004FEA8C11B1EB0C0163EB0E03DB0043EA38
:1022C0005173C90011EB000C43F100039902002384
:1022D0004FEA8C2041EA9C51FEF740FBD1E70348CE
:1022E00000E0034808BD00BF00380240001BB700F3
:1022F0000024F400002800F09B8070B50D460446D1
:102300004F4B1B6803F007038B4208D2CBB24C4AF9
:102310001370136803F007038B4240F08B8023682F
:1023200013F0020F17D013F0040F04D0454A93683E
:1023300043F4E0539360236813F0080F04D0414A3C
:10234000936843F4604393603E4A936823F0F0033C
:10235000A1680B439360236813F0010F32D06368C8
:10236000012B21D09A1E012A25D9364A126812F073
:10237000020F61D033498A6822F0030213438B6055
:10238000FFF78EFB06462F4B9B6803F00C03626839
:10239000B3EB820F16D0FFF783FB801B41F288332B
:1023A0009842F0D9032042E0264A126812F4003F16
:1023B000E0D101203BE0234A126812F0007FD9D11E
:1023C000012034E01E4B1B6803F00703AB4207D922
:1023D000EAB21B4B1A701B6803F00703AB422DD106
:1023E000236813F0040F06D0164A936823F4E053D1
:1023F000E1680B439360236813F0080F07D0114A7C
:10240000936823F46043216943EAC1039360FFF7B3
:102410001DFF0C4B9B68C3F303130B4AD35CD840DE
:102420000A4B18600A4B1868FFF7EEFA002070BDDF
:10243000012070470120FAE70120F8E70120F6E7C4
:10244000003C0240003802407C9E0008040000204E
:102450000C000020014B1868704700BF04000020EA
:1024600008B5FFF7F7FF044B9B68C3F38223034AC9
:10247000D35CD84008BD00BF00380240749E0008FD
:1024800008B5FFF7E7FF044B9B68C3F34233034AE9
:10249000D35CD84008BD00BF00380240749E0008DD
:1024A00030B4036A23F001030362026A456883695A
:1024B00023F073030C681C4322F002028B68134361
:1024C0000B4A904206D0456084614A6842630362C9
:1024D00030BC704723F00803CA681A4322F0040393
:1024E00025F440754A692A438D691543EBE700BF1F
:1024F0000000014030B4036A23F480730362036A6E
:102500004468C26922F073020D68154323F4007316
:102510008A6843EA02230D4A904206D04460C561AE
:102520004A68C263036230BC704723F40063CA6820
:1025300043EA022323F4806324F440544A6944EAC2
:1025400002148A6944EA0214E8E700BF000001406F
:1025500030B4036A23F480530362036A4468C26997
:1025600022F4E6420D6842EA052223F400538D6806
:1025700043EA0533074DA84206D04460C2614A6869
:102580000264036230BC704724F480444D6944EA1D
:102590008514F2E70000014010B4036A046A24F0D5
:1025A00001040462846924F0F00C4CEA021223F066
:1025B0000A030B438261036210BC704730B4046AA3
:1025C00024F0100404628469056A24F4407C4CEA17
:1025D000022C2CF4704C1B039BB243EA0C0325F035
:1025E000A005090101F0A00129438361016230BC0B
:1025F000704710B4036A23F0100303628469036A0E
:1026000024F4704C4CEA023223F0A00343EA011395
:102610008261036210BC704730B4046A24F4807491
:102620000462C469056A24F0030C4CEA020C2CF025
:10263000F00C1B01DBB243EA0C0325F42065090210
:1026400001F420612943C361016230BC704730B49A
:10265000046A24F480540462C469056A24F4407C4A
:102660004CEA022C2CF4704C1B039BB243EA0C0383
:1026700025F42045090301F420412943C361016287
:1026800030BC7047836823F070030B4343F00703AB
:102690008360704770477047704770477047704756
:1026A00010B5044603681A6912F0020F11D0DA68F7
:1026B00012F0020F0DD06FF002021A6101230377AE
:1026C00003689B6913F0030F70D0FFF7E6FF002348
:1026D000237723681A6912F0040F12D0DA6812F017
:1026E000040F0ED06FF004021A61022323772368CF
:1026F0009B6913F4407F5FD02046FFF7CEFF002395
:10270000237723681A6912F0080F12D0DA6812F0E2
:10271000080F0ED06FF008021A6104232377236894
:10272000DB6913F0030F4ED02046FFF7B6FF0023FE
:10273000237723681A6912F0100F12D0DA6812F0AA
:10274000100F0ED06FF010021A6108232377236850
:10275000DB6913F4407F3DD02046FFF79EFF002346
:10276000237723681A6912F0010F03D0DA6812F098
:10277000010F36D123681A6912F0800F03D0DA688E
:1027800012F0800F34D123681A6912F0400F03D081
:10279000DA6812F0400F32D123681A6912F0200F64
:1027A00003D0DA6812F0200F30D110BDFFF774FFAC
:1027B0002046FFF773FF8AE72046FFF76DFF2046AC
:1027C000FFF76CFF9BE72046FFF766FF2046FFF709
:1027D00065FFACE72046FFF75FFF2046FFF75EFF8F
:1027E000BDE76FF001021A612046FFF754FFC1E711
:1027F0006FF080021A61204600F067FBC3E76FF0BC
:1028000040021A612046FFF74AFFC5E76FF0200239
:102810001A61204600F058FBC7E700000368254A0C
:1028200090420ED0B0F1804F0BD0A2F57C42904286
:1028300007D002F58062904203D002F58062904298
:1028400003D123F070034A6813431A4A90421AD006
:10285000B0F1804F17D0A2F57C42904213D002F520
:10286000806290420FD002F5806290420BD002F558
:102870009A32904207D002F58062904203D002F56E
:102880008062904203D123F44073CA68134323F05B
:1028900080034A69134303608B68C3620B688362D9
:1028A000044B984202D00123436170470B690363D4
:1028B000F9E700BF0000014040B310B5044690F8AE
:1028C0003D30F3B1022384F83D30214651F8040B2A
:1028D000FFF7A4FF012384F8463084F83E3084F8E3
:1028E0003F3084F8403084F8413084F8423084F836
:1028F000433084F8443084F8453084F83D3000207B
:1029000010BD80F83C30FEF7E9FEDBE701207047A0
:1029100040B310B5044690F83D30F3B1022384F87B
:102920003D30214651F8040BFFF778FF012384F86E
:10293000463084F83E3084F83F3084F8403084F8E4
:10294000413084F8423084F8433084F8443084F8CD
:10295000453084F83D30002010BD80F83C30FFF752
:1029600099FEDBE70120704740B310B5044690F8AC
:102970003D30F3B1022384F83D30214651F8040B79
:10298000FFF74CFF012384F8463084F83E3084F88A
:102990003F3084F8403084F8413084F8423084F885
:1029A000433084F8443084F8453084F83D300020CA
:1029B00010BD80F83C30FEF7A9FEDBE70120704730
:1029C00030B4036A23F010030362036A4468826927
:1029D00022F4E6420D6842EA052223F020038D68C6
:1029E00043EA05130C4DA84206D0446082614A6850
:1029F0008263036230BC704723F08003CD6843EAF2
:102A0000051323F0400324F440644D6944EA85042F
:102A10008D6944EA8504E8E70000014038B590F884
:102A20003C30012B66D004460D46012380F83C3033
:102A30000C2A5AD8DFE802F0075959591B5959593D
:102A40003059595944000068FFF72AFD22689369FC
:102A500043F0080393612268936923F004039361B0
:102A60002268936929690B43936100203EE0006866
:102A7000FFF7A6FF2268936943F40063936122681D
:102A8000936923F48063936122689369296943EA17
:102A900001239361002029E00068FFF72BFD2268E5
:102AA000D36943F00803D3612268D36923F0040398
:102AB000D3612268D36929690B43D361002015E0F3
:102AC0000068FFF745FD2268D36943F40063D361D2
:102AD0002268D36923F48063D3612268D3692969AA
:102AE00043EA0123D361002000E00120002384F8A1
:102AF0003C3038BD0220FCE770B49446046A24F0F0
:102B0000010404628469066A144DA84214D0B0F12D
:102B1000804F11D0124A90420ED002F5806290424E
:102B20000AD002F58062904206D002F59A329042B5
:102B300002D044F0010203E024F0030242EA0C0256
:102B400022F0F0021B01DBB2134326F00A0201F06F
:102B50000A0111438361016270BC704700000140AB
:102B60000004004038B590F83C30012B5AD00446A0
:102B70000D46012380F83C3052B1042A1AD0082AAD
:102B80002BD00C2A3BD00120002384F83C3038BDE8
:102B9000CB684A6809680068FFF7AEFF226893694E
:102BA00023F00C03936122689369A9680B43936136
:102BB0000020E9E7CB684A6809680068FFF7FEFC77
:102BC0002268936923F44063936122689369A9683A
:102BD00043EA012393610020D6E7CB684A6809687D
:102BE0000068FFF719FD2268D36923F00C03D36155
:102BF0002268D369A9680B43D3610020C4E7CB687E
:102C00004A6809680068FFF722FD2268D36923F447
:102C10004063D3612268D369A96843EA0123D36181
:102C20000020B1E70220B2E710B4846824F47F4C9E
:102C300042EA03220A4342EA0C02826010BC704757
:102C400090F83C30012B78D010B50446012380F871
:102C50003C30022380F83D300268936823F47F43C0
:102C600023F0770393600B68602B4CD029D8402B5E
:102C700054D00CD9502B22D1CA6849680068FFF79C
:102C80008BFC50212068FFF7FDFC002005E0202B85
:102C90000DD009D9302B0AD00120012384F83D3012
:102CA000002384F83C3010BD0BB1102B05D1194620
:102CB0002068FFF7E7FC0020EFE70120EDE70120A7
:102CC000EBE7B3F5805F34D0B3F5005F0CD1CB6890
:102CD0004A6889680068FFF7A7FF2268936843F491
:102CE000804393600020D8E7702B24D1CB684A68DA
:102CF00089680068FFF798FF2268936843F07703BC
:102D000093600020C9E7CA6849680068FFF771FC52
:102D100060212068FFF7B6FC0020BEE7CA6849685A
:102D20000068FFF739FC40212068FFF7ABFC00206A
:102D3000B3E70020B1E70120AFE70220704701F0C0
:102D40001F014FF0010C0CFA01FC036A23EA0C038B
:102D50000362036A8A4013430362704710B5044656
:102D60000846002932D194F83E30DBB2013B18BF4F
:102D70000123002B63D1002841D1022384F83E3087
:102D8000012201462068FFF7DAFF23682E4A9342AA
:102D900045D023682C4A934246D0B3F1804F43D0AC
:102DA000A2F57C4293423FD002F5806293423BD031
:102DB00002F58062934237D002F59A32934233D0C3
:102DC0001A6842F001021A60002037E0042908D096
:102DD00008290DD094F84130DBB2013B18BF012324
:102DE000C7E794F83F30DBB2013B18BF0123C0E7CF
:102DF00094F84030DBB2013B18BF0123B9E7042847
:102E000005D0082807D0022384F84130B8E7022310
:102E100084F83F30B4E7022384F84030B0E75A6CBE
:102E200042F400425A64B4E79A6802F00702062AA4
:102E300007D01A6842F001021A60002010BD01207C
:102E4000FCE70020FAE700BF0000014090F83C20BA
:102E5000012A34D010B40346012280F83C2002221B
:102E600080F83D2002685068946820F0700C086873
:102E700040EA0C0050601A681248824212D0B2F147
:102E8000804F0FD0A0F57C4082420BD000F58060CF
:102E9000824207D000F58060824203D000F59A306C
:102EA000824204D124F080044968214391600122C8
:102EB00083F83D20002083F83C0010BC70470220BE
:102EC000704700BF0000014070477047026802F180
:102ED0000C0353E8003F23F490730C3242E80031B6
:102EE0000029F3D1026802F1140353E8003F23F0F4
:102EF0000103143242E800310029F3D1036B012BA6
:102F000005D0202380F83E30002303637047026819
:102F100002F10C0353E8003F23F010030C3242E8A7
:102F200000310029F3D1ECE790F83D30DBB2212BE2
:102F300001D0022070478368B3F5805F17D0036A21
:102F40005A1C02621A7803685A60C38C9BB2013B18
:102F50009BB2C3844BB90268D36823F08003D3606B
:102F60000268D36843F04003D360002070470369D0
:102F7000002BE4D1036A1B880268C3F30803536083
:102F8000036A02330362E0E710B50446026813697E
:102F900023F44053C1680B431361836802691A43E9
:102FA00043691A43C3691A430168CB6823F4164383
:102FB00023F00C031343CB600268536923F440737E
:102FC00081690B4353610368314A934206D002F58D
:102FD0008062934202D0FFF743FA01E0FFF750FA14
:102FE000E369B3F5004F29D00021031849411B18AC
:102FF00041F10001C90041EA5371DB001818636810
:103000004FEA83024FEA937341F10001FDF7A6FCFA
:10301000204AA2FB00314909642303FB11031B0171
:103020003233A2FB03235B0903F0F00202EB01122F
:1030300003F00F03216813448B6010BD00230218B6
:1030400043EB0301121841F10001C90041EA52713A
:10305000D200101841F10001626892185B41FDF73F
:103060007DFC0C4AA2FB00314909642303FB1103D8
:10307000DB003233A2FB03235B095A0002F4F8722F
:1030800002EB011203F00703216813448B60D4E7BD
:10309000001001401F85EB512DE9F84305460F460E
:1030A00016469946DDF820802B681C6837EA040430
:1030B0000CBF01240024B4422DD1B8F1FF3FF3D05E
:1030C000B8F1000F05D0FEF7EBFCA0EB090040457E
:1030D000EAD92A6802F10C0353E8003F23F4D073C5
:1030E0000C3242E800310029F3D12A6802F11403BE
:1030F00053E8003F23F00103143242E80031002975
:10310000F3D1202385F83D3085F83E30002385F843
:103110003C30032000E00020BDE8F88358B310B530
:10312000044690F83D300BB3242384F83D302268E8
:10313000D36823F40053D3602046FFF725FF2268AD
:10314000136923F4904313612268536923F02A031F
:1031500053612268D36843F40053D3600020206495
:10316000202384F83D3084F83E3010BD80F83C3098
:10317000FEF7CAFBD8E7012070472DE9F04182B085
:103180001E4690F83D30DBB2202B54D104460D464C
:103190009046002953D0002A53D090F83C30012BA0
:1031A00051D0012380F83C3000230364212380F8B0
:1031B0003D30FEF775FC0746A4F82480A4F826806D
:1031C000A368B3F5805F05D04FF00008002384F8B2
:1031D0003C3012E0236913B14FF00008F6E7A8462F
:1031E0000025F3E738F8023B2268C3F30803536075
:1031F000E28C92B2013A92B2E284E38C9BB273B158
:1032000000963B46002280212046FFF745FFE0B9AB
:10321000002DE7D015F8012B23685A60E8E70096E7
:103220003B46002240212046FFF736FF78B9202395
:1032300084F83D3000E0022002B0BDE8F0810120BA
:10324000FAE70120F8E70220F6E70320F4E703207D
:10325000F2E72DE9F04182B01E4690F83E30DBB235
:10326000202B5CD104460D46904600295BD0002AF5
:103270005BD090F83C30012B59D0012380F83C30D2
:1032800000230364222280F83E200363FEF708FC3B
:103290000746A4F82C80A4F82E80A368B3F5805FBD
:1032A00005D04FF00008002384F83C3017E0236974
:1032B00013B14FF00008F6E7A8460025F3E72368AE
:1032C0005B68C3F3080328F8023B03E023685B68EC
:1032D0002B700135E28D92B2013A92B2E285E38D14
:1032E0009BB2BBB100963B46002220212046FFF74F
:1032F000D3FEF0B9002DE2D0A368B3F5805FE5D02E
:1033000013B92369002BE1D023685B6803F07F03C6
:103310002B70DEE7202384F83E30002000E00220FE
:1033200002B0BDE8F0810120FAE70120F8E70220B1
:10333000F6E70320F4E7704708B50168CA6822F091
:103340004002CA60202280F83D20FFF7F4FF0020F1
:1033500008BD7047704708B5806B0023C385C384E0
:10336000FFF7F8FF08BD704790F83E30DBB2222B24
:1033700067D18368B3F5805F4DD0826AB3F5805F13
:1033800004D0002B54D10369002B51D103685B6832
:103390001370836A01338362C38D9BB2013B9BB27E
:1033A000C385002B4FD100B583B00268D36823F0EA
:1033B0002003D3600268D36823F48073D36002686B
:1033C000536923F001035361202380F83E30036BDF
:1033D000012B33D100230363026802F10C0353E88D
:1033E000003F23F010030C3242E800310029F3D1F2
:1033F00003681A6812F0100F06D0002201921A68B2
:1034000001925B680193019B818DFFF7ACFF002067
:1034100003B05DF804FB0269002AAED1826A03683A
:103420005B68C3F308031380836A02338362B3E7E4
:1034300003685B6803F07F031370AAE7FFF789FF57
:10344000E5E70220704700207047000010B582B009
:10345000044602681368D068516913F00F0F09D150
:1034600013F0200F0CD010F0200F09D02046FFF7EA
:103470007BFF16E011F0010115D110F4907F12D1FD
:10348000216B012979D013F0800F03D010F0800F49
:1034900040F0108113F0400F03D010F0400F40F0C7
:1034A0000D8102B010BD13F0010F06D010F4807F23
:1034B00003D0226C42F00102226413F0040F04D006
:1034C00019B1226C42F00202226413F0020F04D000
:1034D00019B1226C42F00402226413F0080F07D0E5
:1034E00010F0200F00D119B1226C42F008022264C2
:1034F000226C002AD5D013F0200F02D010F0200F3C
:1035000029D123685B6903F04003226C12F0080F95
:1035100000D163B32046FFF7D9FC23685B6913F041
:10352000400F20D0226802F1140353E8003F23F03B
:103530004003143242E800310029F3D1A36B73B188
:10354000604A1A65A06BFEF773FB0028A9D0A06B38
:10355000036D9847A5E72046FFF706FFD1E7204611
:10356000FFF7F8FE9DE72046FFF7F4FE99E72046B7
:10357000FFF7F0FE0023236493E713F0100F82D0CF
:1035800010F0100F3FF47FAF0023019313680193F5
:1035900053680193019B536913F0400F50D0A26B05
:1035A00013685B689BB2002B3FF47BAFA18D9942FF
:1035B0007FF677AFE385D369B3F5807F37D0226894
:1035C00002F10C0353E8003F23F480730C3242E80D
:1035D00000310029F3D1226802F1140353E8003FBF
:1035E00023F00103143242E800310029F3D12268AC
:1035F00002F1140353E8003F23F04003143242E881
:1036000000310029F3D1202384F83E3000232363C6
:10361000226802F10C0353E8003F23F010030C3240
:1036200042E800310029F3D1A06BFEF7B7FAA18D73
:10363000E38D9BB2C91A89B22046FFF794FE30E7AA
:10364000A18DE38D9BB2C91A89B2E38D9BB2002B89
:103650003FF427AF00293FF424AF226802F10C03A6
:1036600053E8003F23F490730C3242E80030002806
:10367000F3D1226802F1140353E8003F23F0010361
:10368000143242E800300028F3D1202384F83E3081
:1036900000232363226802F10C0353E8003F23F068
:1036A00010030C3242E800300028F3D12046FFF727
:1036B0005AFEF6E62046FFF737FCF2E62046FFF713
:1036C0003BFEEEE657330008DFF834D00D480E49D4
:1036D0000E4A002302E0D458C4500433C4188C426C
:1036E000F9D30B4A0B4C002301E013600432A242D1
:1036F000FBD3FDF7B5FF00F075FBFDF75DFE7047EE
:103700000000022000000020C406002088A200085B
:10371000C40600201C0B0020FEE700002DE9F04746
:10372000089D0C46002B4ED194468C458646B2FA35
:1037300082F262D94AB1C2F12003914020FA03F328
:103740000CFA02FC194300FA02FE4FEA1C471FFA6A
:103750008CF6B1FBF7F44FEA1E4307FB141143EA62
:10376000014304FB06F199420AD91CEB030304F15F
:10377000FF3080F01381994240F21081023C634493
:10378000591A1FFA8EF3B1FBF7F007FB101143EA49
:10379000014300FB06F69E420AD91CEB030300F12D
:1037A000FF3180F0FD809E4240F2FA80634402388F
:1037B0009B1B40EA044000211DB1D3400022C5E913
:1037C0000032BDE8F0878B4205D90DB1C5E9000193
:1037D00000210846F5E7B3FA83F1002946D1A34258
:1037E00002D39042C0F0F180861A64EB03030120FB
:1037F000002DE6D0C5E90063E3E7002A40F09180A0
:10380000A1EB0C044FEA1C481FFA8CF70121B4FB12
:10381000F8F64FEA1E4308FB164443EA044307FB4D
:1038200006F0984208D91CEB030306F1FF3402D2DC
:10383000984200F2CE8026461C1A1FFA8EF3B4FB83
:10384000F8F008FB104443EA044300FB07F79F42EB
:1038500008D91CEB030300F1FF3402D29F4200F2AF
:10386000B1802046DB1B40EA0640A5E7C1F12006F7
:103870008B4022FA06F71F4320FA06FC04FA01F3F4
:1038800043EA0C03F44000FA01F8380C4FEA1349FC
:10389000B4FBF0FE1FFA87FC00FB1E4449EA044417
:1038A0000EFB0CF9A14502FA01F20AD93C190EF1FE
:1038B000FF3A80F08580A14540F28280AEF1020E91
:1038C0003C44A4EB09041FFA83F9B4FBF0F300FBBA
:1038D000134449EA044403FB0CFCA44507D93C19F2
:1038E00003F1FF3068D2A44566D9023B3C4443EA69
:1038F0000E40A0FB0293A4EB0C049C42CE469C46D7
:1039000052D34FD055B1B8EB0E0364EB0C0404FA5C
:1039100006F6CB40CC401E43C5E900640021BDE85B
:10392000F087C2F1200320FA03F10CFA02FC24FA1A
:1039300003F394400C434FEA1C4800FA02FE1FFABE
:103940008CF7B3FBF8F008FB1031230C43EA01437A
:1039500000FB07F1994208D91CEB030300F1FF3685
:103960002CD299422AD9023863445B1AA4B2B3FB21
:10397000F8F108FB113344EA034401FB07F3A342C7
:1039800008D91CEB040401F1FF3613D2A34211D96C
:1039900002396444E41A41EA004138E70446EFE69C
:1039A000084605E7C845ADD2B9EB020E63EB070C3C
:1039B0000138A7E73146EDE7034698E73046D4E7FC
:1039C000D6467EE7634402384CE70646234608465F
:1039D0000EE7023E63442FE7024A0349034800F022
:1039E000C9B800BF10000020D562000820000020E8
:1039F0000C4B4168994210B5044601D002F06AFCB4
:103A0000A168094B994202D0204602F063FCE168AC
:103A1000064B994204D02046BDE8104002F05ABC43
:103A200010BD00BF0808002070080020D808002042
:103A30002DE9F843314C324B3248DFF8CC90DFF8B7
:103A4000CC80334F1860002529460423082204F156
:103A50005C00304EE360C4E90055C4E90455A5603C
:103A60006566A56100F012F904F15800C4E9074940
:103A7000C4E90987E66200F0DDF92946264B636751
:103A8000082204F1C400C4E91A55C4E91E5525678B
:103A9000C4F8CC50C4F8805000F0F8F804F1680382
:103AA00004F1C000C4F88430C4E92298C4E9247643
:103AB00000F0C0F9194BC4F8DC30294604F59670C3
:103AC0000822C4E93455C4E93855C4F8D850C4F8BC
:103AD0003451C4F8E85000F0D9F804F1D003C4E937
:103AE0003D87C4F8F09004F59470C4F8FC60C4F805
:103AF000EC30BDE8F84300F09DB900BF0808002095
:103B000040090020D9390008FD3B0008213C00088D
:103B1000613C0008853C0008090001001200020019
:103B200010B504460A4800F089F9636B23B9094BC4
:103B3000094A1B68626323B1BDE81040044800F0E5
:103B40007FB9FFF775FFBDE81040014800F078B974
:103B50005009002040090020F1390008014800F018
:103B60006DB900BF50090020014800F069B900BFDD
:103B7000500900202DE9F84380460F4616464FF0C5
:103B80000009D6E90154013D11D4A389012B05F1A7
:103B9000FF3508D9B4F90E300133214603D0404631
:103BA000B84749EA00096B1C04F16804EDD1366896
:103BB000002EE6D14846BDE8F88300BF0EB410B52C
:103BC0009DB06FF000411FAB04910791094953F874
:103BD000042B02900690084C0868019302A90594F2
:103BE00000F058FD029B00221A701DB0BDE8104085
:103BF00003B070471C0000200802FFFF10B50C4600
:103C0000B1F90E1000F0BCF8002803DB236D03446B
:103C1000236510BDA38923F48053A38110BD00BF89
:103C20002DE9F0410C46B1F90C101F46CB050546B5
:103C300016460BD421F48051A1813B46B4F90E10F5
:103C400032462846BDE8F04100F0B0B8B4F90E1095
:103C50000223002200F07EF8B4F90C10EAE700BF5E
:103C600010B50C46B1F90E1000F074F8B4F90C3030
:103C7000421C0EBF23F4805343F480532065A3817C
:103C800010BD00BFB1F90E1000F052B8830730B577
:103C900047D0541E002A3ED0CAB2034601E0013C80
:103CA00039D303F8012B9D07F9D1032C2CD9CDB2C0
:103CB00005EB05250F2C05EB054535D9A4F11002C0
:103CC00022F00F0C03F1100EE6444FEA121C1A46C4
:103CD000156055609560D56010327245F8D10CF1D1
:103CE000010214F00C0F03EB021204F00F0C13D0BE
:103CF000ACF1040323F003030433134442F8045BE0
:103D00009A42FBD10CF003042CB1C9B21C4403F855
:103D1000011B9C42FBD130BD64461346002CF4D1FC
:103D2000F9E703461446C0E71A46A446E0E700BF99
:103D300038B5074D0022044608462A60FDF784FC8A
:103D4000431C00D038BD2B68002BFBD0236038BD4E
:103D50004409002038B50C46084D844611462046DB
:103D60001A4600232B606446FDF778FC431C00D004
:103D700038BD2B68002BFBD0236038BD44090020E0
:103D800038B50C46084D8446114620461A46002395
:103D90002B606446FDF71CFC431C00D038BD2B682B
:103DA000002BFBD0236038BD4409002038B50C46F9
:103DB000084D8446114620461A4600232B6064466F
:103DC000FDF716FC431C00D038BD2B68002BFBD040
:103DD000236038BD44090020014B1868704700BFBC
:103DE0001C00002070B50F4B0F4DAB42A3EB050636
:103DF00007D0B610002455F8043B01349847A6427A
:103E0000F9D805F0F9FF094D094B5E1BAB424FEAAB
:103E1000A60606D0002455F8043B01349847A64274
:103E2000F9D870BD7CA200087CA200087CA2000822
:103E300084A20008704700BF704700BF704700BFF2
:103E4000704700BF024B13B1024800F005B870473D
:103E500000000000B5650008002301461A46184618
:103E600002F002BC2DE9F84306460820894602F01C
:103E7000B5FBDFF89C800546304600F0FFFBD8F824
:103E800008305F6827F00307A7F11104A4EB0904C9
:103E90002C44B4FBF5F4013C05FB04F4A54208DC1A
:103EA0000021304602F074FBD8F808303B449842B9
:103EB00005D0304600F0E8FB0020BDE8F883614201
:103EC000304602F065FB01300FD0124AD8F80830B6
:103ED0003F1B47F001075F60136830461B1B1360F0
:103EE00000F0D2FB0120BDE8F8830021304602F04B
:103EF0004FFBD8F80820831A0F2BDADD43F00103BB
:103F00005360054B03491B68C01A0860D1E700BF26
:103F100050010020580900204401002000297DD0D4
:103F2000F8B50C46064600F0A9FB54F8042C794F6E
:103F3000A4F1080522F0010105EB010CB868DCF8DA
:103F40000430604523F0030300F08880D207CCF8EA
:103F5000043032D454F8082CAD1A1144AA6807F181
:103F6000080082426BD00CEB0304D4F804E0EC6848
:103F7000D4601EF0010FA26000F0898041F00103BF
:103F80006B60CCF80010B1F5007F24D27868CB08C4
:103F90000122490901338A40024357F833107A60FD
:103FA00007EBC302083AC5E9021247F83350CD6067
:103FB0003046BDE8F84000F067BB0CEB03025268E6
:103FC000D2072CD541F00103B1F5007F44F8043C41
:103FD000CCF80010DAD3B1F5206F4FEA512358D254
:103FE0008B0903F1390003F13802C300F818FB58BC
:103FF0000838984203D166E09B68984204D05A681A
:1040000022F003028A42F7D8D868C5E902308560F9
:10401000DD603046BDE8F84000F036BB704719441B
:1040200007F10800DCF80830834243D0DCF80C20AC
:10403000DA60936041F001036B606950A3E70CEB19
:1040400003025268D0075FD40B44DCE90212CA6055
:10405000916043F001026A60EB50A9E70B44D1077D
:1040600007D454F8082CAD1A1344D5E90212CA60DB
:10407000916043F001026A60274ABD6012689A426B
:1040800096D8264B30461968FFF7ECFE90E71944A6
:10409000C8E7142B08D9542B1DD80B0B03F16F0064
:1040A00003F16E02C300A1E703F15C0003F15B02C0
:1040B000C3009BE741F001033D617D61A860E860BA
:1040C0006B60695074E779689210012404FA02F277
:1040D0000A437A6099E7B3F5AA7F06D8CB0B03F1C0
:1040E000780003F17702C30080E740F25452934214
:1040F00006D88B0C03F17D0003F17C02C30075E749
:104100004FF47E737E2271E741F001036B60CCF8BF
:1041100000104DE7500100204801002088090020D0
:104120002DE9F04F01F10B05162D85B0064623D879
:10413000102900F2BC8000F0A1FA102518230221FA
:10414000B84F3B44A3F108025C68944200F0298117
:104150006368E26823F003032344A168CA609160A6
:104160005A6842F0010230465A60083400F08CFA76
:10417000204605B0BDE8F08F35F0070500F19780C7
:10418000A94200F2948000F079FAB5F5FC7FC0F006
:1041900071816B0A00F08F80042B00F22D81AB0936
:1041A00003F1390103F1380CCB009E4F3B44A3F1DE
:1041B00008005C68A04206D10CE0002A80F2EE8084
:1041C000E468A04206D0636823F003035A1B0F2A59
:1041D000F3DD6146DFF850C23C69644500F0CC80F5
:1041E000626822F00302531B0F2B00F34781002B60
:1041F000C7E904CC80F23481B2F5007F80F0D7802B
:10420000D308786801334FEA521E012202FA0EF2F7
:10421000024357F833E0C4F808E007EBC30008385E
:10422000E0607A6047F83340CEF80C408B100120F4
:104230009840904245D8104206D121F00301400039
:10424000104201F10401FAD007EBC1094C468E4639
:10425000D4F80C80444508D1DAE0002B80F2F080DD
:10426000D8F80C80444500F0D380D8F8042022F020
:104270000302531B0F2BF0DD3046D8E9026408EB34
:10428000050145F00105C8F80450F460A66043F04C
:104290000104C7E904114C60C1F808C0C1F80CC0A2
:1042A00048F8023000F0F0F908F1080460E70C2348
:1042B000336000245CE74FF4007340214FF03F0C63
:1042C00073E7BC68636823F00309A94503D3A9EB2E
:1042D00005030F2B52DC554BDFF854B11B68082047
:1042E00003F1100802F07AF9DBF800300190013395
:1042F000A84404EB090205D008F1FF38804443428A
:1043000003EA080841463046029202F041F9B0F152
:10431000FF3F029A824600F0CC80824200F2C780C2
:10432000444B0199186840441860844601F1FF31FC
:1043300040F0EB801AEA010F40F0E780D7F808A0C0
:10434000C84448F00102CAF804203B4B1968814276
:1043500038BF1860394B1968814238BF186054461D
:1043600022F00308A845A8EB050301D30F2B05DCB9
:10437000304600F089F99CE77A6857E7621943F004
:10438000010345F0010565603046BA60536000F0F6
:104390007BF90834204605B0BDE8F08FE26823447D
:1043A000DBE6DC68A3427FF4D3AE023112E7B2F55C
:1043B000206F4FEA522374D3142B00F2098103F1CA
:1043C0005C00C0005B3307EB000E3858AEF1080EFE
:1043D000864503D1E2E08068864504D0436823F037
:1043E00003039342F7D8D0F80CE07A68C4E9020ED0
:1043F000CEF80840C46019E7142B5DD9542B00F2A5
:10440000EF802B0B03F16F0103F16E0CCB00CCE6B8
:104410000EF1010E1EF0030F04F108047FF418AF33
:1044200055E000BF500100205801002088090020FD
:104430004401002058090020840900208009002040
:10444000424444465368D8F80C1043F001035360CB
:1044500054F8083F3046D9608B6000F015F987E6C4
:1044600022443046536843F001035360083400F09F
:104470000BF97DE6E90805F1080361E6611945F0ED
:104480000105656043F00105C7E904113046C1F834
:1044900008C0C1F80CC04D60A35000F0F5F8083416
:1044A00066E6930903F13900C00038338BE7BC425C
:1044B00023D0BC68626853E703F15C0103F15B0C35
:1044C000CB0072E659F808394B4540F0D28011F024
:1044D000030F01F1FF31F5D17B6823EA00037B6014
:1044E000400098423FF6EDAE18B9EAE640000EF102
:1044F000040E1842FAD07146A6E65F4B019918687F
:1045000008EB000C0139C3F800C0DBF800000130F3
:104510001BBFAAEB02026244CBF800A01A601AF09B
:104520000702CDE9022342D0C2F10802019B924466
:10453000D044134408EA01001A1A02EA010B594652
:10454000304602F025F8421C039B76D0A0EB0A000F
:1045500000EB0B081868C7F808A048F0010258449F
:10456000BC42CAF8042018603FF4EFAEB9F10F0F57
:1045700040D96168A9F10C0222F0070201F00101A3
:1045800011436160A1184FF0050C0F2AC1F804C057
:10459000C1F808C046D8DAF80420D6E69A104FF0E1
:1045A00001087B6808FA02F21A437A601EE7019B51
:1045B0000AEB08020A409A1A02EA010B59463046F1
:1045C00001F0E6FF431C039BC0D1DDF808B0C1E752
:1045D000542B13D8130B03F16F00C0006E33F2E6B7
:1045E000B3F5AA7F13D8EB0B03F1780103F1770C35
:1045F000CB00DAE50123CAF80430B9E6B3F5AA7FA7
:1046000023D8D30B03F17800C0007733DBE640F208
:104610005452934223D8AB0C03F17D0103F17C0C7F
:10462000CB00C2E5304604F108010193FFF776FCA8
:10463000019BD7F808A01868ADE7029A083A9044A1
:10464000A8EB0A084FF0000B84E740F25450834275
:104650000BD8930C03F17D00C0007C33B3E64FF41C
:104660007E737F214FF07E0C9FE54FF47E707E239A
:10467000A9E67B6834E700BF580900200148FFF72E
:10468000DDBB00BF480900200148FFF7D9BB00BFD0
:10469000480900202DE9F04FDDB00C460991914604
:1046A0000D93834601F070FF036819931846FCF7D9
:1046B000C7F90822179000212CA8FFF7E7FAA38971
:1046C000180603D52369002B00F09D870023CDE950
:1046D0003133CDE91A33CDE91C33129318930A9381
:1046E00000240023CDE9143433AA309206925E46AA
:1046F000CDF81C90079F754BD3F8E44001F03EFFC6
:1047000003462CA800903A4628A93046A047002826
:1047100000F0A980C0F29F80289A252A034601D084
:104720001F44E8E7079BB7EB0309054640F0A0806C
:1047300000238DF897309A460B937B787C1C4FF0C2
:10474000FF3B0134A3F120025A2A00F2C180DFE8C6
:1047500012F0C002BF00BF00BC02BF00BF00BF001C
:104760006A00BF00BF0014022302BF001F02D7026D
:10477000BF00CA025B005B005B005B005B005B008C
:104780005B005B005B00BF00BF00BF00BF00BF005D
:10479000BF00BF004301BF008E01F002430143018F
:1047A0004301BF00BF00BF00BF00B802BF00BF0091
:1047B0002802BF00BF00BF00B701BF00A502BF00B5
:1047C000BF001307BF00BF00BF00BF00BF00BF0096
:1047D000BF00BF004301BF008E01EE014301430152
:1047E00043016702EE017E00BF008902BF00710233
:1047F000370793027E00BF00B7017C000E07BF00A1
:10480000BF003B07BF007C00A3F13002002114F879
:10481000013B01EB810102EB4101A3F13002092AC6
:10482000F5D90B918EE7304601F0AEFE43681C933C
:104830001846FCF705F91D900546304601F0A4FE28
:1048400083681A93002D40F02986237879E723782E
:104850004AF0200A75E7082200212CA8FFF716FA73
:1048600001231F4447E7079BB7EB0309054614D014
:10487000DDE90623C2E90039329B4B443293319B78
:104880000133072B319317DC1346083306930A9B39
:104890004B440A93002D7FF44BAF329B002B41F029
:1048A0002582099B9B8903F04003002B41F02E8455
:1048B0000A985DB0BDE8F08F099930AA304603F040
:1048C00023FB0028EDD133AB0693E0E75805002029
:1048D000CDE90E34002BE0D000228DF80C31CDE96B
:1048E000102201230893984643AB8DF897200C9231
:1048F0009346139207931AF0020302D008990231EB
:1049000008911AF0840405D10B9908980D1A002D0E
:1049100000F3BC83329F82B1069801224260319A33
:10492000013201370DF19701072A32973192016068
:1049300000F3078402460832069283B1319B069940
:10494000013326AA02370A60072B4FF00202329782
:1049500031934A6000F3E9830B4608330693802CB9
:1049600000F07982ABEB0805002D00F3B9821AF450
:10497000807F40F0F581DDE906231360319BC2F8AA
:10498000048001334744072B3297319300F310839F
:104990001346083306931AF0040F05D00B9B089AB0
:1049A0009C1A002C00F3DC83DDE90A3208998A4264
:1049B000ACBF9B185B180A93002F40F0C582002300
:1049C00031930C9B1BB10C993046FFF7A7FA33AB20
:1049D00006930F9B07938DE6CDE90E340D9B0733AD
:1049E00023F00702F2E80234CDE91434DDE914457E
:1049F00025F0004321932094DDE920780D92BC4BF3
:104A00004FF0FF3238464146FCF7AAF9002840F043
:104A10005385B74B4FF0FF3238464146FCF782F9D9
:104A2000002840F049850022002320462946FCF753
:104A30006FF9002841F045809DF89720AD4CAE4BB2
:104A40002AF0800A0E994729C8BF1C460023CDE9E9
:104A50001033032107940C93089188469B461393C7
:104A6000002A3FF448AF089B0133089343E7432BE8
:104A7000CDE90E3403D01AF0100F00F0AA850D9F77
:104A8000082200212EA843ACFFF700F957F8042BA9
:104A90002EAB2146304603F003FAB0F1FF3F8046CB
:104AA00001F02F8320EAE0730D9708930022CDE9EF
:104AB000102207948DF897200C92934613921AE7D0
:104AC0000D9FCDE90E3400238DF8973057F8043B45
:104AD0000793002B00F0A6850E9B532B00F0528706
:104AE0001AF01003109340F04D87BBF1FF3F01F027
:104AF000F680109907985A46FBF74AFF0C90002859
:104B000001F03F830C9B079A0D97A3EB020828EA5C
:104B1000E873DDF840B0089373239DF89720CDF833
:104B20004CB0CDF844B0CDF830B00E9398E71AF001
:104B3000200FCDE90E3400F004810D9B073323F0E4
:104B400007031A46596852F8083B0D920A46002995
:104B5000C0F25184BBF1FF3F00F0D78253EA02015B
:104B60002AF0800540F0D282BBF1000F40F0D382E2
:104B7000AA465CABD846079344E00D9B53F8042B40
:104B80000B92002A80F25E840B9A0D9352420B9294
:104B900023784AF0040AD4E52B238DF89730237844
:104BA000CFE5CDE90E344AF0100A1AF0200200F0E9
:104BB00014840D9B073323F0070319465A6851F8F4
:104BC000083B0D912AF4806500210020BBF1FF3FD6
:104BD0008DF8970000F0228153EA020025F0800A48
:104BE00040F01B81BBF1000F40F0B9860029C0D115
:104BF00015F001081BBF30238DF86F315CAB0DF24F
:104C00006F130793C3454FF000035946B8BF4146A1
:104C1000CDE910339DF897200C93089113931FE76B
:104C20002378682B03BF63784AF4007A01344AF092
:104C3000400A86E51AF0200F0F9440F025841AF000
:104C4000100F40F028871AF0400F41F02A801AF424
:104C5000007F00F020870D9B0A9953F8042B0D93D9
:104C60001170B6E623786C2B03BF63784AF0200AF4
:104C700001344AF0100A64E50D9A0F9452F8043B8F
:104C80000D9247F63002ADF8982078201B4A189212
:104C90004AF00205002202210E9096E7CDE90E347B
:104CA0004AF0100515F0200200F088830D9B0733B1
:104CB00023F0070319465A6851F8083B0D9101216A
:104CC00083E723784AF0080A3BE523784AF0010A93
:104CD00037E59DF89730002B7FF4B7AD20238DF892
:104CE000973023782DE523784AF0800A29E500BF24
:104CF000FFFFEF7F8C9E0008909E00089C9E00089E
:104D0000214611F8013B2A2B01F0C782A3F13002A2
:104D1000092A0C464FF0000B3FF614AD14F8013B86
:104D20000BEB8B0B02EB4B0BA3F13002092AF5D9ED
:104D300008E54AF0100A1AF0200FCDE90E347FF48E
:104D4000FCAE1AF0100F0D9A40F08D831AF0400F50
:104D500000F0858332F9043B0D92DA171146F6E62E
:104D60000E9B652B40F33481DDE914010022002302
:104D7000FBF7C4FF002800F03782319B0699924A66
:104D80000A60013301370122072B329731934A60C1
:104D900000F3EB850B4608330693279B129A934248
:104DA00080F24B83179B069A19991F44C2E900139E
:104DB000319B32970133072B319300F3178413464D
:104DC00008330693129B5C1E002C7FF7E4AD102C79
:104DD000319B41F33082DFF8F491069ADDF82480AC
:104DE000CDF85890102504E00832103C102C40F308
:104DF000288601331037072BC2E90095CDE93137FA
:104E0000F2DD30AA4146304603F07EF8002840F03B
:104E1000A380DDE9313733AAE7E75546012900F0E1
:104E20007581022900F01E815CAC03F00701DB08EC
:104E300043EA4273D208303153EA0207204604F8AD
:104E4000011DF2D1EA07079400F157825CABAA4634
:104E5000A3EB0408D6E60B9B089A9D1A002D7FF75A
:104E600081AD102D319B41F356815848DDF81890E3
:104E70001690394610241A46074604E0103D102DBE
:104E800009F1080915DD01321031072AC9E900745A
:104E9000CDE93121F2DD099930AA30460DF1CC0976
:104EA00003F032F8002857D1103D102DDDE93121F3
:104EB000E9DCCDF818900F461346069A1699116052
:104EC00001332F44072BCDE93137556000F3C785F7
:104ED0001346ABEB08050833002D06937FF747AD6B
:104EE0003A4A319B1692102D1FDD069A099C4FF00D
:104EF000100B04E0103D102D02F1080214DD013307
:104F000032491037072BC2E9001BCDE93137F1DDFB
:104F100030AA2146304602F0F7FFE8B9103D102DC7
:104F2000DDE9313733AAEADC0692069A1699116058
:104F300001332F44072BCDE93137556000F331821F
:104F400013460833069312E5099930AA304602F059
:104F5000DBFF00283FF433ADB3460C9B002B3FF43E
:104F6000A0AC0C995846FEF7D9FF099B9B8903F02A
:104F700040039AE4179B0698199CDA19C0E900438C
:104F8000319B32920133072B319300F3CC8600F131
:104F900008080029C1F24C800799C8F8001012993E
:104FA000C8F8041001338F18072BCDE9313755DDD0
:104FB000099930AA304602F0A7FF0028CCD133ABC4
:104FC000329F0693E7E400BFCC9E0008D09E000805
:104FD000129B012B40F39F81DDE90623319D136075
:104FE000013501370123072D32973195536000F3C6
:104FF000178202F10808179B199A01351F44072DE3
:10500000C8E90023CDE9315700F3FD8108F1080814
:10501000DDE9140100220023FBF770FE002840F0B8
:105020008E81129B079C0135013B01341F44072DE3
:10503000C8F800403195C8F80430329700F3D083A7
:1050400008F108081B9BC8F8043001351F44072DE0
:105050002AABCDE93157C8F80030A9DC08F10803C4
:10506000069398E4189C5CA903F00F001B09205CD0
:1050700001F8010D43EA0273120953EA0200F3D169
:105080005CAB0791AA46A3EB0108BBE5102DDDE957
:105090003121DFF8D09227DDCDE91E481027069C8C
:1050A000DDF82480169304E0103D102D04F108046F
:1050B00015DD01321031072AC4E90097CDE931210D
:1050C000F2DD30AA4146304633AC02F01DFF002825
:1050D0007FF442AF103D102DDDE93121E9DC06946B
:1050E000169BDDF87C801E9C069801326F18072AFB
:1050F000CDE93127C0F80090456000F3EF83024608
:10510000083206929DF8972005E455460A2B72F165
:10511000000180F07F8330338DF86F310DF26F1313
:10512000AA464FF0010807936CE5099930AA30466A
:1051300002F0EAFE00287FF40FAF33AB329F0693F4
:105140000DE40999169330AA304602F0DDFE0028DE
:105150007FF402AF33AB0693329F169BFFF7EDBB94
:10516000102C319BDFF8FC9129DD4A46DDF81880D0
:10517000DDF824A0B1461025164604E0103C102CA2
:1051800008F1080816DD01331037072BC8E9006560
:10519000CDE93137F2DD30AA514648460DF1CC0851
:1051A00002F0B2FE002840F04284103C102CDDE9F1
:1051B0003137E8DC3246CDF818804E46914601334F
:1051C000069A2744072BC2E90094CDE931377FF7CF
:1051D000EBAB099930AA304602F096FE00287FF426
:1051E000BBAE329FFFF7E0BB2799002940F38783CE
:1051F000109C129A079B9442A8BF1446002C1A4494
:105200000E920DDD069AC2E90034319B013327442A
:10521000072B3297319300F34286134608330693E7
:10522000109D002CA8BF2D1B002D00F30E82DDF871
:105230001CB0109B1AF4806F9B4440F02C82279C7A
:10524000129B9C4203DB1AF0010F00F07A84069B4C
:105250001799199A1A6059601A46319B01330F4405
:10526000072B3297319300F3708613460833069369
:10527000129B1C1B0E9BA3EB0B05A542A8BF25464A
:10528000002D0EDD319B069A01332F44072BC2F807
:1052900000B055603297319300F38E861346083381
:1052A0000693002DA8BF641B002C7FF774AB102C55
:1052B000319B40F3C087DFF8B090069ADDF8248078
:1052C000CDF85890102504E00832103C102C40F323
:1052D000B88301331037072BC2E90095CDE9313788
:1052E000F2DD30AA4146304602F00EFE00287FF47F
:1052F00033AEDDE9313733AAE7E7302900F09A838E
:10530000079A3023023802F8013C5CABAA46A3EBB3
:105310000008079076E41AF0010F7FF45DAEDDE936
:105320000623319D1360013501370123072D329784
:105330003195536000F3548202F1080882E6129B13
:105340005C1E002C7FF77EAE074B1693102C40F3AB
:105350003B82CDF818A0DDF824B04FF010099A4632
:105360000AE000BFE09E0008D09E000808F108088F
:10537000103C102C40F3268201351037072DC8E968
:1053800000A9CDE93157F1DD30AA5946304602F087
:10539000BBFD00287FF4E0ADDDE931570DF1CC080D
:1053A000E6E7099930AA304602F0AEFD00287FF406
:1053B000D3AD33AB329F0693FFF7D9BA15F0100384
:1053C0000D995BD115F0400054D01A4651F8043BBA
:1053D0000D919BB20121FFF7F8BB1AF010030D9954
:1053E00038D11AF0400031D01A4651F8043B0D91E3
:1053F0009BB2FFF7E7BB5B4262EB420255462D20B2
:105400000121FFF7E3BB099930AA304602F07CFD89
:1054100000287FF4A1ADDDE931570DF1CC08F7E5A7
:10542000099930AA304602F06FFD00287FF494AD50
:10543000DDE931570DF1CC08DDE51AF0010F3FF43D
:10544000AAAAAFE40D932378FFF77BB91AF4007290
:1054500040F02F8451F8043B0D91FFF7B3BB1AF4D1
:10546000007F40F0358452F8043B0D92DA17114664
:10547000FFF76DBB15F4007240F0228451F8043B35
:105480000D910121FFF7A1BB0D9B0A9853F8041B56
:105490000D93C217C1E90002FFF79BBA1A9B002BBC
:1054A0003FF4D3A91A9B1B78002B3FF4CEA9237895
:1054B0004AF4806AFFF745B9DDE9140102460B465C
:1054C000FBF74EFC002840F041860E9B612B00F05C
:1054D000FB84412B00F06E85BBF1FF3F00F032846E
:1054E0000E9B23F02003472B04D1BBF1000F08BF14
:1054F0004FF0010BDDE914124AF48070002A169077
:10550000CDF844A04FF00003C0F21585CDE922127A
:105510001E930C930E9B413B252B00F22583DFE865
:1055200013F01C042303230323031504190423038A
:10553000230323032303230323032303230323033B
:10554000230323032303230323032303230323032B
:10555000230323032303230323032303230323031B
:105560002303230323032303230315041904CDE991
:105570000E345546FFF796BBCDE90E34AE4B18936B
:105580001AF0200200F009810D9B073323F0070376
:1055900019465A6851F8083B0D911AF0010F0AD0CC
:1055A00053EA020107D00E998DF8991030214AF084
:1055B000020A8DF898102AF480650221FFF705BBD6
:1055C000CDE90E34FFF7F1BACDE90E349B4B1893B9
:1055D000D6E70D9B4FF0010853F8042BCDF820803F
:1055E0008DF80C210D9343ACFFF760BA099930AAEE
:1055F000304602F089FC00287FF4AEAC33AB329F1A
:105600000693FFF7DFBB40215846FEF789FD099B53
:1056100018601861002800F04A86099A40235361F7
:10562000FFF754B8BBF1060FD8461A4628BF4FF013
:1056300006089B460C93824BCDF82080CDE91022C2
:105640000D9707931392FFF70BBA102D319B40F380
:105650000686DFF8F091069ADDF82480CDF85890A0
:10566000102404E00832103D102D40F33E82013337
:105670001037072BC2E90094CDE93137F2DD30AAAB
:105680004146304602F040FC00287FF465ACDDE97D
:10569000313733AAE7E730465E4683461198CDF8A6
:1056A0001CA03946DFF89C91DDF868A01D9B069A86
:1056B000139F4FF0100878B3002F00F04A81013F8C
:1056C0001C98C2E90003319801301944072832912F
:1056D000319000F3928008320E9C9AF80000A51BCE
:1056E0008542A8BF0546002D0CDD319801302944C4
:1056F0000728C2E900653291319000F3BD819AF824
:1057000000000832002DACBF441B0446002C13DC03
:10571000064411980028CFD1002FD0D15B46B34664
:105720001E460E9BCDF868A09B45DDF81CA0069296
:105730000F4628BF9B4682E5102C319840F37E85AA
:105740004D46069304E0103C102C02F1080215DDD2
:10575000013010310728C2E90098CDE93101F2DDAE
:10576000099930AA584602F0CFFB00287FF4F5AB28
:10577000103C102CDDE9310133AAE9DC069B1560F1
:10578000013021440728CDE93101546000F37783CB
:105790009AF8000008320644BBE71AF010030D998E
:1057A0000CD11AF0400005D01A4651F8043B0D9177
:1057B0009BB2F2E61AF4007240F0CD8151F8043B3E
:1057C0000D91EAE6DDF818A0169BC8F80030013507
:1057D0002744072DCDE93157C8F804407FF730AC96
:1057E000099930AA304602F08FFB00287FF4B4AB51
:1057F000DDE931570DF1CC0824E40999069330AA6C
:10580000584602F081FB00287FF4A7AB3299069B33
:1058100033AA61E75CAC05F480690021CDE9075B40
:105820000C96A346084F1A9E4FF0CC3A4FF005084D
:105830008C464C4610E000BFB09E00089C9E0008BD
:10584000C49E0008D09E0008CDCCCCCC0A2B72F1AF
:10585000000233D34B462A46991841F10001A7FBB9
:10586000010525F0030000EB9500091A581A62F1B2
:10587000000E0AFB00F5A0FB079007FB0E5509F090
:10588000010E0544AEFB080E40184FEA59093030AE
:105890000BF8010C49EAC5790CF1010C0BF1FF3B47
:1058A0006D08002CD2D031788C45CFD1BCF1FF0FE0
:1058B000CCD00A2B72F1000280F0F580079D1A9679
:1058C0005B465CAACDF81CB00C9EDDF820B0CDF88C
:1058D00048C0AA46A2EB0308FFF794B909991693AA
:1058E00030AA304602F010FB00287FF435AB33AB12
:1058F00006939DF89720329F169BFFF70CB8319BBB
:105900000698984A0260013301370122072B32972B
:105910003193426000F3088103460833069300295F
:105920007FF428AB129A0AF0010313433FF433A823
:10593000179B06991998DA19C1E90003319B329235
:105940000133072B319300F3EE8101F10808FFF7D3
:1059500023BB119801380AF1FF3A1190B0E60129F2
:1059600055467FF45EAAFFF7D6BB099930AA3046A8
:1059700002F0CAFA00287FF4EFAA33AB329F0693F5
:10598000FFF70BBA2EAC079B299308220021204673
:10599000FEF77CF9BBF1FF3F00F098800025A84698
:1059A0000CE043A9304602F07BFA411C404400F071
:1059B000A883584508DC00F0E2838046299A5259B2
:1059C00023460435002AECD1B8F1000F00F09E8088
:1059D000B8F1630F40F3958108F101013046FEF7FD
:1059E0009FFB0790002800F08C83079B0C930822F4
:1059F00000212046FEF74AF907990094434629AA58
:105A0000304602F073FA804540F05584079A0D97AE
:105A1000002302F808309B4628EAE873CDE910BB62
:105A20009DF897200893CDF84CB0FFF719B8CB46F6
:105A3000FFF793BA079A5CABAA46A3EB0208FFF7FD
:105A4000E1B80692069A1699116001332744072B94
:105A50005460CDE931377EF79BAFFFF7A9BA0999BA
:105A600030AA304602F050FA00287FF475AA33AB12
:105A7000329F0693FEF776BF0999069330AA5846DF
:105A800002F042FA00287FF468AA9AF800003299DE
:105A9000069B33AA36E60D9B0A9953F8042B116036
:105AA0000D93FEF796BF1D9B1C99ABEB030B1A469B
:105AB000584600F02FFD737803B101364FF0000C0B
:105AC000C8E62D228DF89720FEF7B8BF002300947A
:105AD00029AA1946304602F009FAB0F1FF3F804684
:105AE00000F00F83079B29936EE70692069A16999A
:105AF000116001332F44072BCDE93137556000F396
